:020000040000FA
:04000000A6EF0CF06B
:1006000000506C6561736520436F6E6E6563742086
:1006100020200020202020202020202020202020FA
:100620002020200054656D702D53656E7365205039
:10063000726F626500445331384232302054656D28
:10064000703A004320202020002D0000D388D38A58
:10065000D38CF29E949094929494000E956E000E1A
:10066000836E000E446E000E456E000E466E000E48
:10067000476E11EC0BF012D0800E54EC0BF0010E13
:10068000086E060E096ED1EC0BF0C00E54EC0BF0A8
:10069000240E086E060E096ED1EC0BF05BEC0CF02C
:1006A0000009D8A4E9D7130E086E060E096ED1EC26
:1006B0000BF05BEC0CF04E0EABEC0BF0000EABEC69
:1006C0000BF0000EABEC0BF07F0EABEC0BF05BEC29
:1006D0000CF0CC0EABEC0BF0440EABEC0BF019ECC9
:1006E0000CF0FF0AD8B4FBD7060E3F6E130E3E6E19
:1006F000AE0EE82EFED73E2EFCD73F2EFAD75BEC8F
:100700000CF0CC0EABEC0BF0BE0EABEC0BF019EC1E
:100710000CF03E6E3E50486E496A19EC0CF03E6E8D
:100720003E504A6E4B6A4AAE42D14AC04EF04BC070
:100730004FF04E504F6E4E6A48504E104E6E49501C
:100740004F104F6EFF0E4E244E6EFF0E4F204F6E19
:100750004E1E4F1E4E3A4F3A0F0E4E164F50F00B94
:100760004E120F0E4F164EC001F04FC002F0000E99
:10077000046E640E036E73EC0CF001C04EF002C008
:100780004FF048C04CF049C04DF0FF0E4C244C6E69
:10079000FF0E4D204D6E4C1E4D1E0F0E4C144C6E18
:1007A0004D6A000E136E000E146EC80E156E400ECC
:1007B000166E4CC001F04DC002F0036A046A000ED0
:1007C000ACEC09F001C00FF002C010F003C011F052
:1007D00004C012F0C3EC05F00FC028F010C029F0DF
:1007E00011C02AF012C02BF0B4EC0AF028C04CF073
:1007F00029C04DF04C504E243E6E4D504F203F6E60
:100800003EC001F03FC002F0036A046A000EACEC87
:1008100009F001C050F002C051F003C052F004C012
:1008200053F05EC062F05FC063F060C064F061C00E
:1008300065F062C011F063C012F064C013F065C0CF
:1008400014F050C015F051C016F052C017F053C04C
:1008500018F0F6EC0BF011C040F012C041F013C0DC
:1008600042F014C043F050C011F051C012F052C019
:1008700013F053C014F062C015F063C016F064C0EA
:1008800017F065C018F0F6EC0BF011C044F012C080
:1008900045F013C046F014C047F0000E016E000E84
:1008A000026EA00E036E410E046E40C005F041C002
:1008B00006F042C007F043C008F04CEC0AF0D8A0A4
:1008C00014D0000E016E000E026EA00E036E410EDB
:1008D000046E44C005F045C006F046C007F047C0AE
:1008E00008F04CEC0AF0D8B035D050C05EF051C0E2
:1008F0005FF052C060F053C061F0800E54EC0BF01A
:10090000350E086E060E096ED1EC0BF0C00E54ECDD
:100910000BF0490E086E060E096ED1EC0BF05EC0AE
:1009200028F05FC029F060C02AF061C02BF0B4EC61
:100930000AF028C032F029C033F0050EF2EC08F0BE
:10094000DF0EB3EC0CF0430E086E060E096ED1EC10
:100950000BF0A4D6800E54EC0BF0350E086E060E8C
:10096000096ED1EC0BF0C00E54EC0BF0490E086E82
:10097000060E096ED1EC0BF062C028F063C029F0BE
:1009800064C02AF065C02BF0B4EC0AF028C032F045
:1009900029C033F0050EF2EC08F0DF0EB3EC0CF0DA
:1009A000430E086E060E096ED1EC0BF077D64A5056
:1009B0003F6E3E6A48503E2649503F223EC001F0FD
:1009C0003FC002F0036A046A000EACEC09F001C0FB
:1009D00050F002C051F003C052F004C053F050C0B8
:1009E0000FF051C010F052C011F053C012F0000EC1
:1009F000136E000E146EC80E156E400E166EC3EC0C
:100A000005F00FC050F010C051F011C052F012C0EC
:100A100053F05EC062F05FC063F060C064F061C01C
:100A200065F062C011F063C012F064C013F065C0DD
:100A300014F050C015F051C016F052C017F053C05A
:100A400018F0F6EC0BF011C040F012C041F013C0EA
:100A500042F014C043F050C011F051C012F052C027
:100A600013F053C014F062C015F063C016F064C0F8
:100A700017F065C018F0F6EC0BF011C044F012C08E
:100A800045F013C046F014C047F0000E016E000E92
:100A9000026EA00E036E410E046E40C005F041C010
:100AA00006F042C007F043C008F04CEC0AF0D8A0B2
:100AB00014D0000E016E000E026EA00E036E410EE9
:100AC000046E44C005F045C006F046C007F047C0BC
:100AD00008F04CEC0AF0D8B02FD050C05EF051C0F6
:100AE0005FF052C060F053C061F0800E54EC0BF028
:100AF000350E086E060E096ED1EC0BF0C00E54ECEC
:100B00000BF05EC028F05FC029F060C02AF061C021
:100B10002BF0B4EC0AF028C032F029C033F0050EF7
:100B2000F2EC08F0DF0EB3EC0CF0430E086E060E8C
:100B3000096ED1EC0BF0B2D5800E54EC0BF0350EF3
:100B4000086E060E096ED1EC0BF0C00E54EC0BF0E3
:100B500062C028F063C029F064C02AF065C02BF0A1
:100B6000B4EC0AF028C032F029C033F0050EF2ECE4
:100B700008F0DF0EB3EC0CF0430E086E060E096EA3
:100B8000D1EC0BF08BD51250800B1B6E125012243F
:100B9000216E11BE21802150D8B40DD02128D8A4B7
:100BA00008D0000E0F6E000E106E000E116E000EBB
:100BB000126E118E08D0000E0F6E000E106E000E19
:100BC000116E000E126E1650800B1B1A1650162452
:100BD000206E15BE20802050D8B40DD02028D8A477
:100BE00008D0000E136E000E146E000E156E000E6F
:100BF000166E158E08D0000E136E000E146E000EC9
:100C0000156E000E166E2050D8B403D02150D8A413
:100C100009D0000E0F6E000E106E000E116E000E49
:100C2000126E120015500F02F3CF26F0F4CF27F00A
:100C300026501C6E1D6A1E6A1F6A2750226E236A88
:100C4000246A256A14501002F3CF26F0F4CF27F05F
:100C500026501C26000E1D221E221F22275022264F
:100C6000000E23222422252213501102F3CF26F056
:100C7000F4CF27F026501C26000E1D221E221F2214
:100C800027502226000E2322242225221EC01FF0D8
:100C90001DC01EF01CC01DF01C6A13501002F3CFC3
:100CA00026F0F4CF27F026501C2627501D22000ED8
:100CB0001E22000E1F2214500F02F3CF26F0F4CF95
:100CC00027F026501C2627501D22000E1E22000E43
:100CD0001F221EC01FF01DC01EF01CC01DF01C6A8C
:100CE00013500F02F3CF26F0F4CF27F026501C2626
:100CF00027501D22000E1E22000E1F22155010022A
:100D0000F3CF26F0F4CF27F02650222627502322B7
:100D1000000E2422000E252214501102F3CF26F0DB
:100D2000F4CF27F02650222627502322000E24221B
:100D3000000E252215501102F3CF26F0F4CF27F034
:100D40002650176E2750186E196A1A6A19C01AF0C1
:100D500018C019F017C018F0176A1750222618503B
:100D60002322195024221A5025221CC017F01DC01E
:100D700018F01EC019F01FC01AF0190E05D0D89037
:100D80001A32193218321732E82EF9D717502226A4
:100D900018502322195024221A5025221EC01FF059
:100DA0001DC01EF01CC01DF01C6A205021C017F091
:100DB000186A1726000E1822820E1724266EFF0EC0
:100DC0001820276E0FD0D8902236233624362536A9
:100DD0001FBE2280D8901C361D361E361F362606B2
:100DE000D8A0270624AEEFD7000E206E1FAE17D076
:100DF000FF0E1C14176EFF0E1D14186EFF0E1E142E
:100E0000196E7F0E1F141A6E1750181019101A1031
:100E1000D8B403D0010E206E02D022B0FBD72050F0
:100E2000D8B41FD0010E2226000E23222422252210
:100E300025A017D022C017F023C018F024C019F045
:100E400025C01AF01A341A3219321832173217C064
:100E500022F018C023F019C024F01AC025F0264A49
:100E6000272A27BE0DD0275003E12628D8A008D076
:100E7000000E226E000E236E800E246E7F0E20D098
:100E800027BE05D027500EE12604D8B00BD0000EA7
:100E9000226E000E236E000E246E000E256E000ED4
:100EA0001B6E0FD026C021F0FF0E2216FF0E231658
:100EB0007F0E2416000E251621B0248ED8902130E6
:100EC000256E1B50251222C00FF023C010F024C045
:100ED00011F025C012F012000450800B0D6E04506A
:100EE00004240F6E03BE0F800F50D8B40DD00F280E
:100EF000D8A408D0000E016E000E026E000E036E24
:100F0000000E046E038E06D0000E016E000E026EFF
:100F1000000E036E000E046E0850800B0E6E0D5016
:100F20000E18D8A40D8C085008240E6E07BE0E8033
:100F30000E50D8B40DD00E28D8A408D0000E056EDF
:100F4000000E066E000E076E000E086E078E06D0AD
:100F5000000E056E000E066E000E076E000E086E87
:100F60000F500E5CD8B022D00DAC02D0800E0D1AFE
:100F70000FC010F00EC00FF010C00EF001C010F046
:100F800005C001F010C005F002C010F006C002F06C
:100F900010C006F003C010F007C003F010C007F047
:100FA00004C010F008C004F010C008F0000E106E6D
:100FB0000F500EC009F00A6A095E000E0A5A0ABEF6
:100FC0002CD00A5004E11A0E095CD8A026D001509A
:100FD000021003100410D8B402D0010E01D0000E8C
:100FE000106E000E016E000E026E000E036E000EFB
:100FF000046E0EC00FF015D010A005D0D8901030A0
:101000000109106E02D0D890103201B0108E043455
:1010100004320332023201320F2A0E500F5CD8A084
:10102000EBD70DBC28D00F50D8A409D0000E016E0C
:10103000000E026E000E036E000E046E12000550CC
:10104000012606500222075003220850042204A061
:1010500071D010A005D0D89010300109106E02D0C8
:10106000D890103201B0108E0434043203320232B0
:1010700001320F2A5FD00550015C0650025807501C
:1010800003580450800A096E0850800A0958D8B0E5
:1010900025D00150055C096E025006580A6E0350B7
:1010A00007580B6E045008580C6EFF0E0924016E91
:1010B000FF0E0A20026EFF0E0B20036EFF0E0C20A7
:1010C000046E800E0D1A106C1050D8A40FD0010EB3
:1010D0000126000E02220322042208D00550015EE0
:1010E0000650025A0750035A0850045A0150021081
:1010F00003100410D8A41CD01050D8A419D0000E8E
:10110000016E000E026E000E036E000E046E1200E1
:10111000D890013602360336043610BE018010A086
:1011200002D0D88001D0D89010360F50D8A40F0626
:1011300003AEEED7000E0E6E10AE0BD010C009F04D
:101140007F0E0916D8B403D0010E0E6E02D001B086
:10115000FBD70E50D8B420D0010E0126000E02227B
:101160000322042204A018D001C009F002C00AF032
:1011700003C00BF004C00CF00C340C320B320A32FA
:10118000093209C001F00AC002F00BC003F00CC024
:1011900004F00F28D8A40F2A0F28D8B403D00F507A
:1011A000D8A40DD0000E016E000E026E000E036E6C
:1011B000000E046E0F50D8A402D0000E0D6E0FA0CA
:1011C00002D0038E01D0039ED8900F30046E0DBE66
:1011D000048E01C001F002C002F003C003F004C09D
:1011E00004F0120020EE34F0090EDE6AE806FDE29B
:1011F00032C001F033C002F0270E046E100E036EF1
:1012000082EC0BF001C03CF002C03DF032C001F0B6
:1012100033C002F0270E046E100E036E3AEC0CF091
:1012200001C03AF002C03BF03AC001F03BC002F00E
:10123000030E046EE80E036E3AEC0CF001C038F0B9
:1012400002C039F03AC001F03BC002F0030E046E58
:10125000E80E036E82EC0BF001C03AF002C03BF0E6
:1012600038C001F039C002F0000E046E640E036E47
:101270003AEC0CF001C036F002C037F038C001F093
:1012800039C002F0000E046E640E036E82EC0BF0A7
:1012900001C038F002C039F036C001F037C002F0AA
:1012A000000E046E0A0E036E3AEC0CF001C034F02E
:1012B00002C035F036C001F037C002F0000E046EF7
:1012C0000A0E036E82EC0BF001C036F002C037F05C
:1012D0003C503D10D8A428D03A503B10D8A410D090
:1012E0003850300FB3EC0CF02E0EB3EC0CF036503F
:1012F000300FB3EC0CF03450300FB3EC0CF01200A4
:101300003A50300FB3EC0CF03850300FB3EC0CF017
:101310002E0EB3EC0CF03650300FB3EC0CF0345012
:10132000300FB3EC0CF012003C50300FB3EC0CF06B
:101330003A50300FB3EC0CF03850300FB3EC0CF0E7
:101340002E0EB3EC0CF03650300FB3EC0CF03450E2
:10135000300FB3EC0CF01200096E0950D8A404AEA3
:101360001AD001C005F002C006F003C007F004C0A7
:1013700008F0051E061E071E081E052A000E06227E
:101380000722082205C00BF006C00CF007C00DF0C4
:1013900008C00EF008D001C00BF002C00CF003C072
:1013A0000DF004C00EF00150021003100410D8A478
:1013B00009D0000E016E000E026E000E036E000ECC
:1013C000046E1200960E0A6E06D00A2AD8900E32CB
:1013D0000D320C320B32000E0B14056E000E0C1485
:1013E000066E000E0D14076EFE0E0E14086E0550EC
:1013F000061007100810D8B40DD0E7D70A2A010E3E
:101400000B26000E0C220D220E22D8900E320D3229
:101410000C320B32000E0B14056E000E0C14066E0F
:10142000000E0D14076EFF0E0E14086E0550061008
:1014300007100810D8B407D0E1D70A06D8900B36A9
:101440000C360D360E360DBE03D0020E0A60F5D7EF
:101450000AA00D9ED8900A320AC005F0066A076AF3
:10146000086A05C008F0076A066A056A05500B128B
:1014700006500C1207500D1208500E120950D8A435
:1014800004AE01D00E8E0BC001F00CC002F00DC0F6
:1014900003F00EC004F01200000E0114096E000EDD
:1014A00002140A6E800E03140B6E7F0E04140C6E71
:1014B00009500A100B100C10D8A408D0000E016EB1
:1014C000000E026E000E036E000E046E000E051478
:1014D000096E000E06140A6E800E07140B6E7F0E46
:1014E00008140C6E09500A100B100C10D8A408D068
:1014F000000E056E000E066E000E076E000E086EE2
:1015000004AE09D0016C021ED8B0022A031ED8B066
:10151000032A800E045608AE09D0056C061ED8B00A
:10152000062A071ED8B0072A800E0856000E011A98
:10153000000E021A000E031A800E041A000E051A7D
:10154000000E061A000E071A800E081A0550015CDC
:10155000065002580750035808500458D8B002D01B
:10156000D8901200D88012002A342B34316E3150BA
:10157000D8A409D0000E286E000E296E000E2A6E27
:10158000000E2B6E120028C02CF029C02DF02AC0AE
:101590002EF02BC02FF0200E05D0D8902F322E32F7
:1015A0002D322C32E82EF9D72C50306E2A8EFF0EB9
:1015B0002816FF0E2916FF0E2A16000E2B16960E61
:1015C000315E31AE0DD03150800A970FD8A0D2D7FE
:1015D000D8902B322A3229322832313EF9D70DD019
:1015E0001F0E316407D0C6D7D890283629362A3640
:1015F0002B3631063150D8A4F7D73050D8B408D0A4
:101600002B1E2A1E291E286C000E29222A222B227C
:1016100028C028F029C029F02AC02AF02BC02BF0BE
:101620001200010E026E2C0E016E86EC0CF0010E03
:10163000026E2C0E016E86EC0CF0280E98EC0CF06D
:10164000010E026E2C0E016E86EC0CF00C0E54ECAA
:101650000BF0010E026E2C0E016E86EC0CF0040EE7
:1016600054EC0BF0010E026E2C0E016E86EC0CF0A9
:10167000850E54EC0BF0010E026E2C0E016E86EC02
:101680000CF0060E54EC0BF0010E026E2C0E016EE7
:1016900086EC0CF0010E54EC0BF0010E026E2C0ED9
:1016A000016E86EC0CF01200056E66506710D8B41F
:1016B00005D0000E676E000E666E01D08290829299
:1016C00005C006F0F00E06160F0E831606508312A4
:1016D0008284010E026E2C0E016E86EC0CF0829458
:1016E0000538F00B066EF00E06160F0E8316065028
:1016F00083128284010E026E2C0E016E86EC0CF0B9
:1017000082941200000E066E000E056E0350041047
:10171000D8B41CD0010E076E04D0D890033604361E
:10172000072A04AEFAD7D890053606360350015C76
:1017300004500258D8A005D00350015E0450025A4C
:101740000580D89004320332072EEDD705C001F092
:1017500006C002F01200036E9380000E046E04C0F7
:1017600001F0010E026E012A02D0D8900236012E3D
:10177000FCD7025003140009D8B408D0939081908C
:1017800000D09380280EE82EFED706D0939081904B
:10179000280EE82EFED79380042A070E0464DFD7B4
:1017A0001200000E0D6E000E0C6E10D00C500824AE
:1017B0000A6E0D5009200B6E0AC0F6FF0BC0F7FF32
:1017C0000800F550B3EC0CF00C4A0D2A0C5008241C
:1017D0000A6E0D5009200B6E0AC0F6FF0BC0F7FF12
:1017E0000800F5500009D8B41200E0D7000E151A11
:1017F000000E161A000E171A800E181A11C001F0EA
:1018000012C002F013C003F014C004F015C005F0BC
:1018100016C006F017C007F018C008F06CEC07F00F
:1018200001C011F002C012F003C013F004C014F0A4
:101830001200000E036E9380000E046E9390819050
:1018400000D000D0938081A00CD004C001F0010E24
:10185000026E012A02D0D8900236012EFCD7025027
:101860000312280EE82EFED7042A070E0464E6D7DA
:101870000350120003500410D8B418D0010E056EA6
:1018800004D0D89003360436052A04AEFAD70350A4
:10189000015C04500258D8A004D00350015E0450EB
:1018A000025AD89004320332052EF1D701C001F05C
:1018B00002C002F0120093908190C00E00D0E82E7A
:1018C000FDD79380280EE82EFED781B006D0C00E3B
:1018D00000D0E82EFDD7000E1200C00E00D0E82E7A
:1018E000FDD7010E120001500302F3CF05F0F4CF33
:1018F00006F001500402F350062602500302F35092
:10190000062605C001F006C002F01200000E046EAB
:10191000000E036E000E046E000E036E02D0034A2A
:10192000042A0150035C02500458D8B01200F7D7C3
:10193000056E8290829205C083FF8284010E026E42
:101940002C0E016E86EC0CF08294120000EE54F026
:10195000140EEE6AE806FDE1000EF86E060EF76E54
:10196000000126EF03F0076E000E676E010E666E33
:0A1970008280075054EC0BF01200C7
:020000040020DA
:08000000FFFFFFFFFFFFFFFF00
:020000040030CA
:0E000000FF081F1EFF8181FF0FC00FE00F40A1
:00000001FF
